{
  "contractName": "MonedaRv",
  "abi": [
    {
      "constant": true,
      "inputs": [],
      "name": "totalSupply",
      "outputs": [
        {
          "name": "",
          "type": "uint256"
        }
      ],
      "payable": false,
      "stateMutability": "view",
      "type": "function"
    },
    {
      "inputs": [],
      "payable": false,
      "stateMutability": "nonpayable",
      "type": "constructor"
    }
  ],
  "bytecode": "0x608060405234801561001057600080fd5b50620f4240600081905550609e806100296000396000f300608060405260043610603f576000357c0100000000000000000000000000000000000000000000000000000000900463ffffffff16806318160ddd146044575b600080fd5b348015604f57600080fd5b506056606c565b6040518082815260200191505060405180910390f35b600054815600a165627a7a72305820dbca6f561f10ab18c258f290121edca187c06c96f8346285de370fc2576671230029",
  "source": "pragma solidity ^0.4.2;\n\ncontract MonedaRv {\n\n\tuint256 public totalSupply;\n\n\tfunction MonedaRv () public {\n\t\ttotalSupply = 1000000;\n\n\t}\t\n}",
  "sourcePath": "/home/rv/engineer/code/Ethereum/MonedaRv/contracts/MonedaRv.sol",
  "compiler": {
    "name": "solc",
    "version": "0.4.24+commit.e67f0147.Emscripten.clang"
  },
  "schemaVersion": "2.0.1",
  "updatedAt": "2018-12-05T22:59:15.166Z"
}